{
  "_format": "hh-sol-artifact-1",
  "contractName": "MerkleAirdrop",
  "sourceName": "contracts/MerkleAirdrop.sol",
  "abi": [
    {
      "inputs": [
        {
          "internalType": "address",
          "name": "_token",
          "type": "address"
        },
        {
          "internalType": "bytes32",
          "name": "_merkleRoot",
          "type": "bytes32"
        }
      ],
      "stateMutability": "nonpayable",
      "type": "constructor"
    },
    {
      "anonymous": false,
      "inputs": [
        {
          "indexed": true,
          "internalType": "address",
          "name": "reciever",
          "type": "address"
        },
        {
          "indexed": false,
          "internalType": "uint256",
          "name": "amount",
          "type": "uint256"
        }
      ],
      "name": "AirdropClaimed",
      "type": "event"
    },
    {
      "anonymous": false,
      "inputs": [
        {
          "indexed": true,
          "internalType": "bytes32",
          "name": "newMerkleRoot",
          "type": "bytes32"
        }
      ],
      "name": "MerkleRootUpdated",
      "type": "event"
    },
    {
      "anonymous": false,
      "inputs": [
        {
          "indexed": true,
          "internalType": "address",
          "name": "owner",
          "type": "address"
        },
        {
          "indexed": false,
          "internalType": "uint256",
          "name": "amount",
          "type": "uint256"
        }
      ],
      "name": "TokensWithdrawn",
      "type": "event"
    },
    {
      "inputs": [
        {
          "internalType": "uint256",
          "name": "amount",
          "type": "uint256"
        },
        {
          "internalType": "bytes32[]",
          "name": "proof",
          "type": "bytes32[]"
        }
      ],
      "name": "checkQualification",
      "outputs": [
        {
          "internalType": "bool",
          "name": "",
          "type": "bool"
        }
      ],
      "stateMutability": "view",
      "type": "function"
    },
    {
      "inputs": [
        {
          "internalType": "uint256",
          "name": "amount",
          "type": "uint256"
        },
        {
          "internalType": "bytes32[]",
          "name": "proof",
          "type": "bytes32[]"
        }
      ],
      "name": "claimAirdrop",
      "outputs": [],
      "stateMutability": "nonpayable",
      "type": "function"
    },
    {
      "inputs": [
        {
          "internalType": "address",
          "name": "",
          "type": "address"
        }
      ],
      "name": "claimed",
      "outputs": [
        {
          "internalType": "bool",
          "name": "",
          "type": "bool"
        }
      ],
      "stateMutability": "view",
      "type": "function"
    },
    {
      "inputs": [],
      "name": "merkleRoot",
      "outputs": [
        {
          "internalType": "bytes32",
          "name": "",
          "type": "bytes32"
        }
      ],
      "stateMutability": "view",
      "type": "function"
    },
    {
      "inputs": [],
      "name": "owner",
      "outputs": [
        {
          "internalType": "address",
          "name": "",
          "type": "address"
        }
      ],
      "stateMutability": "view",
      "type": "function"
    },
    {
      "inputs": [],
      "name": "token",
      "outputs": [
        {
          "internalType": "contract IERC20",
          "name": "",
          "type": "address"
        }
      ],
      "stateMutability": "view",
      "type": "function"
    },
    {
      "inputs": [
        {
          "internalType": "bytes32",
          "name": "_newMerkleRoot",
          "type": "bytes32"
        }
      ],
      "name": "updateMerkleRoot",
      "outputs": [],
      "stateMutability": "nonpayable",
      "type": "function"
    },
    {
      "inputs": [
        {
          "internalType": "uint256",
          "name": "amount",
          "type": "uint256"
        }
      ],
      "name": "withdrawTokens",
      "outputs": [],
      "stateMutability": "nonpayable",
      "type": "function"
    }
  ],
  "bytecode": "0x60806040523480156200001157600080fd5b50604051620011fb380380620011fb83398181016040528101906200003791906200016c565b816000806101000a81548173ffffffffffffffffffffffffffffffffffffffff021916908373ffffffffffffffffffffffffffffffffffffffff1602179055508060018190555033600260006101000a81548173ffffffffffffffffffffffffffffffffffffffff021916908373ffffffffffffffffffffffffffffffffffffffff1602179055505050620001b3565b600080fd5b600073ffffffffffffffffffffffffffffffffffffffff82169050919050565b6000620000f982620000cc565b9050919050565b6200010b81620000ec565b81146200011757600080fd5b50565b6000815190506200012b8162000100565b92915050565b6000819050919050565b620001468162000131565b81146200015257600080fd5b50565b60008151905062000166816200013b565b92915050565b60008060408385031215620001865762000185620000c7565b5b600062000196858286016200011a565b9250506020620001a98582860162000155565b9150509250929050565b61103880620001c36000396000f3fe608060405234801561001057600080fd5b50600436106100885760003560e01c8063776e306a1161005b578063776e306a146100ff5780638da5cb5b1461012f578063c884ef831461014d578063fc0c546a1461017d57610088565b80630bcae1ac1461008d5780632eb4a7ab146100a9578063315a095d146100c75780634783f0ef146100e3575b600080fd5b6100a760048036038101906100a291906109db565b61019b565b005b6100b161046b565b6040516100be9190610a54565b60405180910390f35b6100e160048036038101906100dc9190610a6f565b610471565b005b6100fd60048036038101906100f89190610ac8565b610673565b005b610119600480360381019061011491906109db565b61073a565b6040516101269190610b10565b60405180910390f35b61013761081d565b6040516101449190610b6c565b60405180910390f35b61016760048036038101906101629190610bb3565b610843565b6040516101749190610b10565b60405180910390f35b610185610863565b6040516101929190610c3f565b60405180910390f35b600360003373ffffffffffffffffffffffffffffffffffffffff1673ffffffffffffffffffffffffffffffffffffffff16815260200190815260200160002060009054906101000a900460ff1615610228576040517f08c379a000000000000000000000000000000000000000000000000000000000815260040161021f90610cb7565b60405180910390fd5b6000338460405160200161023d929190610d40565b6040516020818303038152906040528051906020012090506102a3838380806020026020016040519081016040528093929190818152602001838360200280828437600081840152601f19601f8201169050808301925050505050505060015483610887565b6102e2576040517f08c379a00000000000000000000000000000000000000000000000000000000081526004016102d990610db8565b60405180910390fd5b6001600360003373ffffffffffffffffffffffffffffffffffffffff1673ffffffffffffffffffffffffffffffffffffffff16815260200190815260200160002060006101000a81548160ff02191690831515021790555060008054906101000a900473ffffffffffffffffffffffffffffffffffffffff1673ffffffffffffffffffffffffffffffffffffffff1663a9059cbb33866040518363ffffffff1660e01b8152600401610395929190610de7565b6020604051808303816000875af11580156103b4573d6000803e3d6000fd5b505050506040513d601f19601f820116820180604052508101906103d89190610e3c565b610417576040517f08c379a000000000000000000000000000000000000000000000000000000000815260040161040e90610eb5565b60405180910390fd5b3373ffffffffffffffffffffffffffffffffffffffff167f650e45f04ef8a0c267b2f78d983913f69ae3a353b2b32de5429307522be0ab558560405161045d9190610ed5565b60405180910390a250505050565b60015481565b600260009054906101000a900473ffffffffffffffffffffffffffffffffffffffff1673ffffffffffffffffffffffffffffffffffffffff163373ffffffffffffffffffffffffffffffffffffffff1614610501576040517f08c379a00000000000000000000000000000000000000000000000000000000081526004016104f890610f3c565b60405180910390fd5b60008054906101000a900473ffffffffffffffffffffffffffffffffffffffff1673ffffffffffffffffffffffffffffffffffffffff1663a9059cbb600260009054906101000a900473ffffffffffffffffffffffffffffffffffffffff16836040518363ffffffff1660e01b815260040161057e929190610de7565b6020604051808303816000875af115801561059d573d6000803e3d6000fd5b505050506040513d601f19601f820116820180604052508101906105c19190610e3c565b610600576040517f08c379a00000000000000000000000000000000000000000000000000000000081526004016105f790610eb5565b60405180910390fd5b600260009054906101000a900473ffffffffffffffffffffffffffffffffffffffff1673ffffffffffffffffffffffffffffffffffffffff167f6352c5382c4a4578e712449ca65e83cdb392d045dfcf1cad9615189db2da244b826040516106689190610ed5565b60405180910390a250565b600260009054906101000a900473ffffffffffffffffffffffffffffffffffffffff1673ffffffffffffffffffffffffffffffffffffffff163373ffffffffffffffffffffffffffffffffffffffff1614610703576040517f08c379a00000000000000000000000000000000000000000000000000000000081526004016106fa90610f3c565b60405180910390fd5b80600181905550807f90004c04698bc3322499a575ed3752dd4abf33e0a7294c06a787a0fe01bea94160405160405180910390a250565b6000600360003373ffffffffffffffffffffffffffffffffffffffff1673ffffffffffffffffffffffffffffffffffffffff16815260200190815260200160002060009054906101000a900460ff16156107975760009050610816565b600033856040516020016107ac929190610d40565b604051602081830303815290604052805190602001209050610812848480806020026020016040519081016040528093929190818152602001838360200280828437600081840152601f19601f8201169050808301925050505050505060015483610887565b9150505b9392505050565b600260009054906101000a900473ffffffffffffffffffffffffffffffffffffffff1681565b60036020528060005260406000206000915054906101000a900460ff1681565b60008054906101000a900473ffffffffffffffffffffffffffffffffffffffff1681565b600082610894858461089e565b1490509392505050565b60008082905060005b84518110156108e9576108d4828683815181106108c7576108c6610f5c565b5b60200260200101516108f4565b915080806108e190610fba565b9150506108a7565b508091505092915050565b600081831061090c57610907828461091f565b610917565b610916838361091f565b5b905092915050565b600082600052816020526040600020905092915050565b600080fd5b600080fd5b6000819050919050565b61095381610940565b811461095e57600080fd5b50565b6000813590506109708161094a565b92915050565b600080fd5b600080fd5b600080fd5b60008083601f84011261099b5761099a610976565b5b8235905067ffffffffffffffff8111156109b8576109b761097b565b5b6020830191508360208202830111156109d4576109d3610980565b5b9250929050565b6000806000604084860312156109f4576109f3610936565b5b6000610a0286828701610961565b935050602084013567ffffffffffffffff811115610a2357610a2261093b565b5b610a2f86828701610985565b92509250509250925092565b6000819050919050565b610a4e81610a3b565b82525050565b6000602082019050610a696000830184610a45565b92915050565b600060208284031215610a8557610a84610936565b5b6000610a9384828501610961565b91505092915050565b610aa581610a3b565b8114610ab057600080fd5b50565b600081359050610ac281610a9c565b92915050565b600060208284031215610ade57610add610936565b5b6000610aec84828501610ab3565b91505092915050565b60008115159050919050565b610b0a81610af5565b82525050565b6000602082019050610b256000830184610b01565b92915050565b600073ffffffffffffffffffffffffffffffffffffffff82169050919050565b6000610b5682610b2b565b9050919050565b610b6681610b4b565b82525050565b6000602082019050610b816000830184610b5d565b92915050565b610b9081610b4b565b8114610b9b57600080fd5b50565b600081359050610bad81610b87565b92915050565b600060208284031215610bc957610bc8610936565b5b6000610bd784828501610b9e565b91505092915050565b6000819050919050565b6000610c05610c00610bfb84610b2b565b610be0565b610b2b565b9050919050565b6000610c1782610bea565b9050919050565b6000610c2982610c0c565b9050919050565b610c3981610c1e565b82525050565b6000602082019050610c546000830184610c30565b92915050565b600082825260208201905092915050565b7f41697264726f7020616c726561647920636c61696d65642e0000000000000000600082015250565b6000610ca1601883610c5a565b9150610cac82610c6b565b602082019050919050565b60006020820190508181036000830152610cd081610c94565b9050919050565b60008160601b9050919050565b6000610cef82610cd7565b9050919050565b6000610d0182610ce4565b9050919050565b610d19610d1482610b4b565b610cf6565b82525050565b6000819050919050565b610d3a610d3582610940565b610d1f565b82525050565b6000610d4c8285610d08565b601482019150610d5c8284610d29565b6020820191508190509392505050565b7f496e76616c69642070726f6f662e000000000000000000000000000000000000600082015250565b6000610da2600e83610c5a565b9150610dad82610d6c565b602082019050919050565b60006020820190508181036000830152610dd181610d95565b9050919050565b610de181610940565b82525050565b6000604082019050610dfc6000830185610b5d565b610e096020830184610dd8565b9392505050565b610e1981610af5565b8114610e2457600080fd5b50565b600081519050610e3681610e10565b92915050565b600060208284031215610e5257610e51610936565b5b6000610e6084828501610e27565b91505092915050565b7f546f6b656e207472616e73666572206661696c65642e00000000000000000000600082015250565b6000610e9f601683610c5a565b9150610eaa82610e69565b602082019050919050565b60006020820190508181036000830152610ece81610e92565b9050919050565b6000602082019050610eea6000830184610dd8565b92915050565b7f596f757220617265206e6f7420746865206f776e657200000000000000000000600082015250565b6000610f26601683610c5a565b9150610f3182610ef0565b602082019050919050565b60006020820190508181036000830152610f5581610f19565b9050919050565b7f4e487b7100000000000000000000000000000000000000000000000000000000600052603260045260246000fd5b7f4e487b7100000000000000000000000000000000000000000000000000000000600052601160045260246000fd5b6000610fc582610940565b91507fffffffffffffffffffffffffffffffffffffffffffffffffffffffffffffffff8203610ff757610ff6610f8b565b5b60018201905091905056fea2646970667358221220260c9f0b049235e9cbad8b50e0166b299ff2748c7a07e1a234f94a827766be3964736f6c63430008140033",
  "linkReferences": {},
  "deployedLinkReferences": {}
}